{
  "contractName": "ZoidsNFT",
  "abi": [
    {
      "inputs": [
        {
          "internalType": "string",
          "name": "_ver",
          "type": "string"
        },
        {
          "internalType": "string",
          "name": "_name",
          "type": "string"
        },
        {
          "internalType": "string",
          "name": "_symbol",
          "type": "string"
        },
        {
          "internalType": "string",
          "name": "_uri",
          "type": "string"
        },
        {
          "internalType": "address",
          "name": "_erc20",
          "type": "address"
        }
      ],
      "stateMutability": "nonpayable",
      "type": "constructor"
    },
    {
      "anonymous": false,
      "inputs": [
        {
          "indexed": true,
          "internalType": "address",
          "name": "owner",
          "type": "address"
        },
        {
          "indexed": true,
          "internalType": "address",
          "name": "approved",
          "type": "address"
        },
        {
          "indexed": true,
          "internalType": "uint256",
          "name": "tokenId",
          "type": "uint256"
        }
      ],
      "name": "Approval",
      "type": "event"
    },
    {
      "anonymous": false,
      "inputs": [
        {
          "indexed": true,
          "internalType": "address",
          "name": "owner",
          "type": "address"
        },
        {
          "indexed": true,
          "internalType": "address",
          "name": "operator",
          "type": "address"
        },
        {
          "indexed": false,
          "internalType": "bool",
          "name": "approved",
          "type": "bool"
        }
      ],
      "name": "ApprovalForAll",
      "type": "event"
    },
    {
      "anonymous": false,
      "inputs": [
        {
          "indexed": true,
          "internalType": "address",
          "name": "previousOwner",
          "type": "address"
        },
        {
          "indexed": true,
          "internalType": "address",
          "name": "newOwner",
          "type": "address"
        }
      ],
      "name": "OwnershipTransferred",
      "type": "event"
    },
    {
      "anonymous": false,
      "inputs": [
        {
          "indexed": false,
          "internalType": "address",
          "name": "account",
          "type": "address"
        }
      ],
      "name": "Paused",
      "type": "event"
    },
    {
      "anonymous": false,
      "inputs": [
        {
          "indexed": true,
          "internalType": "address",
          "name": "from",
          "type": "address"
        },
        {
          "indexed": true,
          "internalType": "address",
          "name": "to",
          "type": "address"
        },
        {
          "indexed": true,
          "internalType": "uint256",
          "name": "tokenId",
          "type": "uint256"
        }
      ],
      "name": "Transfer",
      "type": "event"
    },
    {
      "anonymous": false,
      "inputs": [
        {
          "indexed": false,
          "internalType": "address",
          "name": "account",
          "type": "address"
        }
      ],
      "name": "Unpaused",
      "type": "event"
    },
    {
      "anonymous": false,
      "inputs": [
        {
          "indexed": false,
          "internalType": "address",
          "name": "_owner",
          "type": "address"
        },
        {
          "indexed": false,
          "internalType": "uint256",
          "name": "_tokenId",
          "type": "uint256"
        }
      ],
      "name": "evtNFTCreated",
      "type": "event"
    },
    {
      "inputs": [],
      "name": "VER",
      "outputs": [
        {
          "internalType": "string",
          "name": "",
          "type": "string"
        }
      ],
      "stateMutability": "view",
      "type": "function",
      "constant": true
    },
    {
      "inputs": [],
      "name": "_INTERFACE_ID_ERC2981",
      "outputs": [
        {
          "internalType": "bytes4",
          "name": "",
          "type": "bytes4"
        }
      ],
      "stateMutability": "view",
      "type": "function",
      "constant": true
    },
    {
      "inputs": [
        {
          "internalType": "address",
          "name": "to",
          "type": "address"
        },
        {
          "internalType": "uint256",
          "name": "tokenId",
          "type": "uint256"
        }
      ],
      "name": "approve",
      "outputs": [],
      "stateMutability": "nonpayable",
      "type": "function"
    },
    {
      "inputs": [
        {
          "internalType": "address",
          "name": "owner",
          "type": "address"
        }
      ],
      "name": "balanceOf",
      "outputs": [
        {
          "internalType": "uint256",
          "name": "",
          "type": "uint256"
        }
      ],
      "stateMutability": "view",
      "type": "function",
      "constant": true
    },
    {
      "inputs": [],
      "name": "baseURI",
      "outputs": [
        {
          "internalType": "string",
          "name": "",
          "type": "string"
        }
      ],
      "stateMutability": "view",
      "type": "function",
      "constant": true
    },
    {
      "inputs": [
        {
          "internalType": "uint256",
          "name": "tokenId",
          "type": "uint256"
        }
      ],
      "name": "burn",
      "outputs": [],
      "stateMutability": "nonpayable",
      "type": "function"
    },
    {
      "inputs": [],
      "name": "erc20ContractAddress",
      "outputs": [
        {
          "internalType": "address",
          "name": "",
          "type": "address"
        }
      ],
      "stateMutability": "view",
      "type": "function",
      "constant": true
    },
    {
      "inputs": [
        {
          "internalType": "uint256",
          "name": "tokenId",
          "type": "uint256"
        }
      ],
      "name": "getApproved",
      "outputs": [
        {
          "internalType": "address",
          "name": "",
          "type": "address"
        }
      ],
      "stateMutability": "view",
      "type": "function",
      "constant": true
    },
    {
      "inputs": [
        {
          "internalType": "address",
          "name": "owner",
          "type": "address"
        },
        {
          "internalType": "address",
          "name": "operator",
          "type": "address"
        }
      ],
      "name": "isApprovedForAll",
      "outputs": [
        {
          "internalType": "bool",
          "name": "",
          "type": "bool"
        }
      ],
      "stateMutability": "view",
      "type": "function",
      "constant": true
    },
    {
      "inputs": [],
      "name": "lastTokenId",
      "outputs": [
        {
          "internalType": "uint256",
          "name": "_value",
          "type": "uint256"
        }
      ],
      "stateMutability": "view",
      "type": "function",
      "constant": true
    },
    {
      "inputs": [],
      "name": "name",
      "outputs": [
        {
          "internalType": "string",
          "name": "",
          "type": "string"
        }
      ],
      "stateMutability": "view",
      "type": "function",
      "constant": true
    },
    {
      "inputs": [],
      "name": "owner",
      "outputs": [
        {
          "internalType": "address",
          "name": "",
          "type": "address"
        }
      ],
      "stateMutability": "view",
      "type": "function",
      "constant": true
    },
    {
      "inputs": [
        {
          "internalType": "uint256",
          "name": "tokenId",
          "type": "uint256"
        }
      ],
      "name": "ownerOf",
      "outputs": [
        {
          "internalType": "address",
          "name": "",
          "type": "address"
        }
      ],
      "stateMutability": "view",
      "type": "function",
      "constant": true
    },
    {
      "inputs": [],
      "name": "paused",
      "outputs": [
        {
          "internalType": "bool",
          "name": "",
          "type": "bool"
        }
      ],
      "stateMutability": "view",
      "type": "function",
      "constant": true
    },
    {
      "inputs": [],
      "name": "renounceOwnership",
      "outputs": [],
      "stateMutability": "nonpayable",
      "type": "function"
    },
    {
      "inputs": [
        {
          "internalType": "uint256",
          "name": "_tokenId",
          "type": "uint256"
        },
        {
          "internalType": "uint256",
          "name": "_salePrice",
          "type": "uint256"
        }
      ],
      "name": "royaltyInfo",
      "outputs": [
        {
          "internalType": "address",
          "name": "",
          "type": "address"
        },
        {
          "internalType": "uint256",
          "name": "",
          "type": "uint256"
        }
      ],
      "stateMutability": "view",
      "type": "function",
      "constant": true
    },
    {
      "inputs": [
        {
          "internalType": "address",
          "name": "from",
          "type": "address"
        },
        {
          "internalType": "address",
          "name": "to",
          "type": "address"
        },
        {
          "internalType": "uint256",
          "name": "tokenId",
          "type": "uint256"
        }
      ],
      "name": "safeTransferFrom",
      "outputs": [],
      "stateMutability": "nonpayable",
      "type": "function"
    },
    {
      "inputs": [
        {
          "internalType": "address",
          "name": "from",
          "type": "address"
        },
        {
          "internalType": "address",
          "name": "to",
          "type": "address"
        },
        {
          "internalType": "uint256",
          "name": "tokenId",
          "type": "uint256"
        },
        {
          "internalType": "bytes",
          "name": "_data",
          "type": "bytes"
        }
      ],
      "name": "safeTransferFrom",
      "outputs": [],
      "stateMutability": "nonpayable",
      "type": "function"
    },
    {
      "inputs": [
        {
          "internalType": "address",
          "name": "operator",
          "type": "address"
        },
        {
          "internalType": "bool",
          "name": "approved",
          "type": "bool"
        }
      ],
      "name": "setApprovalForAll",
      "outputs": [],
      "stateMutability": "nonpayable",
      "type": "function"
    },
    {
      "inputs": [],
      "name": "symbol",
      "outputs": [
        {
          "internalType": "string",
          "name": "",
          "type": "string"
        }
      ],
      "stateMutability": "view",
      "type": "function",
      "constant": true
    },
    {
      "inputs": [
        {
          "internalType": "uint256",
          "name": "index",
          "type": "uint256"
        }
      ],
      "name": "tokenByIndex",
      "outputs": [
        {
          "internalType": "uint256",
          "name": "",
          "type": "uint256"
        }
      ],
      "stateMutability": "view",
      "type": "function",
      "constant": true
    },
    {
      "inputs": [
        {
          "internalType": "address",
          "name": "owner",
          "type": "address"
        },
        {
          "internalType": "uint256",
          "name": "index",
          "type": "uint256"
        }
      ],
      "name": "tokenOfOwnerByIndex",
      "outputs": [
        {
          "internalType": "uint256",
          "name": "",
          "type": "uint256"
        }
      ],
      "stateMutability": "view",
      "type": "function",
      "constant": true
    },
    {
      "inputs": [
        {
          "internalType": "uint256",
          "name": "tokenId",
          "type": "uint256"
        }
      ],
      "name": "tokenURI",
      "outputs": [
        {
          "internalType": "string",
          "name": "",
          "type": "string"
        }
      ],
      "stateMutability": "view",
      "type": "function",
      "constant": true
    },
    {
      "inputs": [],
      "name": "totalSupply",
      "outputs": [
        {
          "internalType": "uint256",
          "name": "",
          "type": "uint256"
        }
      ],
      "stateMutability": "view",
      "type": "function",
      "constant": true
    },
    {
      "inputs": [
        {
          "internalType": "address",
          "name": "from",
          "type": "address"
        },
        {
          "internalType": "address",
          "name": "to",
          "type": "address"
        },
        {
          "internalType": "uint256",
          "name": "tokenId",
          "type": "uint256"
        }
      ],
      "name": "transferFrom",
      "outputs": [],
      "stateMutability": "nonpayable",
      "type": "function"
    },
    {
      "inputs": [
        {
          "internalType": "address",
          "name": "newOwner",
          "type": "address"
        }
      ],
      "name": "transferOwnership",
      "outputs": [],
      "stateMutability": "nonpayable",
      "type": "function"
    },
    {
      "inputs": [
        {
          "internalType": "address",
          "name": "_contractAddress",
          "type": "address"
        }
      ],
      "name": "setERC20ContractAddress",
      "outputs": [],
      "stateMutability": "nonpayable",
      "type": "function"
    },
    {
      "inputs": [],
      "name": "contractURI",
      "outputs": [
        {
          "internalType": "string",
          "name": "",
          "type": "string"
        }
      ],
      "stateMutability": "view",
      "type": "function",
      "constant": true
    },
    {
      "inputs": [
        {
          "internalType": "string",
          "name": "_uri",
          "type": "string"
        }
      ],
      "name": "setBaseURI",
      "outputs": [],
      "stateMutability": "nonpayable",
      "type": "function"
    },
    {
      "inputs": [],
      "name": "getLastTokenId",
      "outputs": [
        {
          "internalType": "uint256",
          "name": "",
          "type": "uint256"
        }
      ],
      "stateMutability": "view",
      "type": "function",
      "constant": true
    },
    {
      "inputs": [
        {
          "internalType": "uint256",
          "name": "_tokenId",
          "type": "uint256"
        }
      ],
      "name": "getCardIndex",
      "outputs": [
        {
          "internalType": "uint256",
          "name": "",
          "type": "uint256"
        }
      ],
      "stateMutability": "view",
      "type": "function",
      "constant": true
    },
    {
      "inputs": [
        {
          "internalType": "address",
          "name": "_owner",
          "type": "address"
        },
        {
          "internalType": "uint256",
          "name": "_min",
          "type": "uint256"
        },
        {
          "internalType": "uint256",
          "name": "_max",
          "type": "uint256"
        }
      ],
      "name": "tokensOfOwner",
      "outputs": [
        {
          "internalType": "uint256[]",
          "name": "",
          "type": "uint256[]"
        }
      ],
      "stateMutability": "view",
      "type": "function",
      "constant": true
    },
    {
      "inputs": [
        {
          "internalType": "address",
          "name": "_toAddress",
          "type": "address"
        },
        {
          "internalType": "uint256",
          "name": "_cardIndex",
          "type": "uint256"
        },
        {
          "internalType": "uint96",
          "name": "_royalty",
          "type": "uint96"
        }
      ],
      "name": "createCard",
      "outputs": [],
      "stateMutability": "nonpayable",
      "type": "function"
    },
    {
      "inputs": [
        {
          "internalType": "address",
          "name": "_toAddress",
          "type": "address"
        },
        {
          "internalType": "uint256",
          "name": "_cardIndex",
          "type": "uint256"
        },
        {
          "internalType": "uint256[]",
          "name": "_burnTokenId",
          "type": "uint256[]"
        },
        {
          "internalType": "uint96",
          "name": "_royalty",
          "type": "uint96"
        }
      ],
      "name": "createCardWithBurn",
      "outputs": [],
      "stateMutability": "nonpayable",
      "type": "function"
    },
    {
      "inputs": [
        {
          "internalType": "address",
          "name": "_toAddress",
          "type": "address"
        },
        {
          "internalType": "uint256[]",
          "name": "_cardIndex",
          "type": "uint256[]"
        },
        {
          "internalType": "uint256",
          "name": "_amount",
          "type": "uint256"
        },
        {
          "internalType": "uint96",
          "name": "_royalty",
          "type": "uint96"
        }
      ],
      "name": "unpack",
      "outputs": [],
      "stateMutability": "nonpayable",
      "type": "function"
    },
    {
      "inputs": [
        {
          "internalType": "address",
          "name": "_buyer",
          "type": "address"
        },
        {
          "internalType": "uint256",
          "name": "_tokenId",
          "type": "uint256"
        },
        {
          "internalType": "uint256",
          "name": "_coinAmount",
          "type": "uint256"
        }
      ],
      "name": "market",
      "outputs": [],
      "stateMutability": "nonpayable",
      "type": "function"
    },
    {
      "inputs": [
        {
          "internalType": "address",
          "name": "_buyer",
          "type": "address"
        },
        {
          "internalType": "uint256[]",
          "name": "_tokenId",
          "type": "uint256[]"
        },
        {
          "internalType": "uint256[]",
          "name": "_coinAmount",
          "type": "uint256[]"
        }
      ],
      "name": "marketMulti",
      "outputs": [],
      "stateMutability": "nonpayable",
      "type": "function"
    },
    {
      "inputs": [],
      "name": "pause",
      "outputs": [],
      "stateMutability": "nonpayable",
      "type": "function"
    },
    {
      "inputs": [],
      "name": "unpause",
      "outputs": [],
      "stateMutability": "nonpayable",
      "type": "function"
    },
    {
      "inputs": [
        {
          "internalType": "uint256",
          "name": "_tokenId",
          "type": "uint256"
        },
        {
          "internalType": "address",
          "name": "_receiver",
          "type": "address"
        },
        {
          "internalType": "uint96",
          "name": "_royalty",
          "type": "uint96"
        }
      ],
      "name": "setRoyaltyInfo",
      "outputs": [],
      "stateMutability": "nonpayable",
      "type": "function"
    },
    {
      "inputs": [
        {
          "internalType": "address",
          "name": "_contractAddress",
          "type": "address"
        }
      ],
      "name": "checkRoyalties",
      "outputs": [
        {
          "internalType": "bool",
          "name": "",
          "type": "bool"
        }
      ],
      "stateMutability": "view",
      "type": "function",
      "constant": true
    },
    {
      "inputs": [
        {
          "internalType": "bytes4",
          "name": "_interfaceId",
          "type": "bytes4"
        }
      ],
      "name": "supportsInterface",
      "outputs": [
        {
          "internalType": "bool",
          "name": "",
          "type": "bool"
        }
      ],
      "stateMutability": "view",
      "type": "function",
      "constant": true
    }
  ],
  "bytecode": "0x60806040523480156200001157600080fd5b506040516200645f3803806200645f8339818101604052810190620000379190620007c4565b838381600090816200004a919062000b13565b5080600190816200005c919062000b13565b5050506000600a60006101000a81548160ff0219169083151502179055506200009a6200008e620000f260201b60201c565b620000fa60201b60201c565b84600e9081620000ab919062000b13565b50620000bd82620001c060201b60201c565b620000ce816200026460201b60201c565b620000e6632a55205a60e01b6200033760201b60201c565b50505050505062000c7d565b600033905090565b6000600d60009054906101000a900473ffffffffffffffffffffffffffffffffffffffff16905081600d60006101000a81548173ffffffffffffffffffffffffffffffffffffffff021916908373ffffffffffffffffffffffffffffffffffffffff1602179055508173ffffffffffffffffffffffffffffffffffffffff168173ffffffffffffffffffffffffffffffffffffffff167f8be0079c531659141344cd1fd0a4f28419497f9722a3daafe3b4186f6b6457e060405160405180910390a35050565b620001d0620000f260201b60201c565b73ffffffffffffffffffffffffffffffffffffffff16620001f6620003bf60201b60201c565b73ffffffffffffffffffffffffffffffffffffffff16146200024f576040517f08c379a0000000000000000000000000000000000000000000000000000000008152600401620002469062000c5b565b60405180910390fd5b806010908162000260919062000b13565b5050565b62000274620000f260201b60201c565b73ffffffffffffffffffffffffffffffffffffffff166200029a620003bf60201b60201c565b73ffffffffffffffffffffffffffffffffffffffff1614620002f3576040517f08c379a0000000000000000000000000000000000000000000000000000000008152600401620002ea9062000c5b565b60405180910390fd5b80601160006101000a81548173ffffffffffffffffffffffffffffffffffffffff021916908373ffffffffffffffffffffffffffffffffffffffff16021790555050565b60007f2a55205a000000000000000000000000000000000000000000000000000000007bffffffffffffffffffffffffffffffffffffffffffffffffffffffff1916827bffffffffffffffffffffffffffffffffffffffffffffffffffffffff19161480620003b85750620003b782620003e960201b62001e2b1760201c565b5b9050919050565b6000600d60009054906101000a900473ffffffffffffffffffffffffffffffffffffffff16905090565b60007f780e9d63000000000000000000000000000000000000000000000000000000007bffffffffffffffffffffffffffffffffffffffffffffffffffffffff1916827bffffffffffffffffffffffffffffffffffffffffffffffffffffffff191614806200046a575062000469826200047160201b62001ea51760201c565b5b9050919050565b60007f80ac58cd000000000000000000000000000000000000000000000000000000007bffffffffffffffffffffffffffffffffffffffffffffffffffffffff1916827bffffffffffffffffffffffffffffffffffffffffffffffffffffffff191614806200053d57507f5b5e139f000000000000000000000000000000000000000000000000000000007bffffffffffffffffffffffffffffffffffffffffffffffffffffffff1916827bffffffffffffffffffffffffffffffffffffffffffffffffffffffff1916145b806200055b57506200055a826200056260201b62001f871760201c565b5b9050919050565b60007f01ffc9a7000000000000000000000000000000000000000000000000000000007bffffffffffffffffffffffffffffffffffffffffffffffffffffffff1916827bffffffffffffffffffffffffffffffffffffffffffffffffffffffff1916149050919050565b6000604051905090565b600080fd5b600080fd5b600080fd5b600080fd5b6000601f19601f8301169050919050565b7f4e487b7100000000000000000000000000000000000000000000000000000000600052604160045260246000fd5b6200063582620005ea565b810181811067ffffffffffffffff82111715620006575762000656620005fb565b5b80604052505050565b60006200066c620005cc565b90506200067a82826200062a565b919050565b600067ffffffffffffffff8211156200069d576200069c620005fb565b5b620006a882620005ea565b9050602081019050919050565b60005b83811015620006d5578082015181840152602081019050620006b8565b60008484015250505050565b6000620006f8620006f2846200067f565b62000660565b905082815260208101848484011115620007175762000716620005e5565b5b62000724848285620006b5565b509392505050565b600082601f830112620007445762000743620005e0565b5b815162000756848260208601620006e1565b91505092915050565b600073ffffffffffffffffffffffffffffffffffffffff82169050919050565b60006200078c826200075f565b9050919050565b6200079e816200077f565b8114620007aa57600080fd5b50565b600081519050620007be8162000793565b92915050565b600080600080600060a08688031215620007e357620007e2620005d6565b5b600086015167ffffffffffffffff811115620008045762000803620005db565b5b62000812888289016200072c565b955050602086015167ffffffffffffffff811115620008365762000835620005db565b5b62000844888289016200072c565b945050604086015167ffffffffffffffff811115620008685762000867620005db565b5b62000876888289016200072c565b935050606086015167ffffffffffffffff8111156200089a5762000899620005db565b5b620008a8888289016200072c565b9250506080620008bb88828901620007ad565b9150509295509295909350565b600081519050919050565b7f4e487b7100000000000000000000000000000000000000000000000000000000600052602260045260246000fd5b600060028204905060018216806200091b57607f821691505b602082108103620009315762000930620008d3565b5b50919050565b60008190508160005260206000209050919050565b60006020601f8301049050919050565b600082821b905092915050565b6000600883026200099b7fffffffffffffffffffffffffffffffffffffffffffffffffffffffffffffffff826200095c565b620009a786836200095c565b95508019841693508086168417925050509392505050565b6000819050919050565b6000819050919050565b6000620009f4620009ee620009e884620009bf565b620009c9565b620009bf565b9050919050565b6000819050919050565b62000a1083620009d3565b62000a2862000a1f82620009fb565b84845462000969565b825550505050565b600090565b62000a3f62000a30565b62000a4c81848462000a05565b505050565b5b8181101562000a745762000a6860008262000a35565b60018101905062000a52565b5050565b601f82111562000ac35762000a8d8162000937565b62000a98846200094c565b8101602085101562000aa8578190505b62000ac062000ab7856200094c565b83018262000a51565b50505b505050565b600082821c905092915050565b600062000ae86000198460080262000ac8565b1980831691505092915050565b600062000b03838362000ad5565b9150826002028217905092915050565b62000b1e82620008c8565b67ffffffffffffffff81111562000b3a5762000b39620005fb565b5b62000b46825462000902565b62000b5382828562000a78565b600060209050601f83116001811462000b8b576000841562000b76578287015190505b62000b82858262000af5565b86555062000bf2565b601f19841662000b9b8662000937565b60005b8281101562000bc55784890151825560018201915060208501945060208101905062000b9e565b8683101562000be5578489015162000be1601f89168262000ad5565b8355505b6001600288020188555050505b505050505050565b600082825260208201905092915050565b7f4f776e61626c653a2063616c6c6572206973206e6f7420746865206f776e6572600082015250565b600062000c4360208362000bfa565b915062000c508262000c0b565b602082019050919050565b6000602082019050818103600083015262000c768162000c34565b9050919050565b6157d28062000c8d6000396000f3fe608060405234801561001057600080fd5b506004361061025e5760003560e01c8063715018a611610146578063ac4a231d116100c3578063d9b6b35411610087578063d9b6b3541461070c578063e486df1514610728578063e8a3d48514610746578063e985e9c514610764578063f2fde38b14610794578063f84ddf0b146107b05761025e565b8063ac4a231d14610644578063b88d4fde14610660578063c0a515871461067c578063c839fe94146106ac578063c87b56dd146106dc5761025e565b80638da5cb5b1161010a5780638da5cb5b146105b257806395d89b41146105d057806397a6a8ed146105ee578063a22cb4651461060c578063aae0a0a3146106285761025e565b8063715018a614610548578063777ae6b514610552578063835166421461056e57806383c4c00d1461058a5780638456cb59146105a85761025e565b80633c4de40f116101df57806355f804b3116101a357806355f804b3146104605780635c975abb1461047c5780636352211e1461049a5780636c0360eb146104ca57806370a08231146104e8578063713edd74146105185761025e565b80633c4de40f146103d05780633f4ba83a146103ee57806342842e0e146103f857806342966c68146104145780634f6ccce7146104305761025e565b806318160ddd1161022657806318160ddd1461031957806323b872dd146103375780632a55205a146103535780632f745c591461038457806331c2cd91146103b45761025e565b806301ffc9a71461026357806306fdde0314610293578063081812fc146102b1578063095ea7b3146102e15780631495fa99146102fd575b600080fd5b61027d600480360381019061027891906136f5565b6107ce565b60405161028a919061373d565b60405180910390f35b61029b610848565b6040516102a891906137e8565b60405180910390f35b6102cb60048036038101906102c69190613840565b6108da565b6040516102d891906138ae565b60405180910390f35b6102fb60048036038101906102f691906138f5565b61095f565b005b61031760048036038101906103129190613979565b610a76565b005b610321610b02565b60405161032e91906139db565b60405180910390f35b610351600480360381019061034c91906139f6565b610b0f565b005b61036d60048036038101906103689190613a49565b610b6f565b60405161037b929190613a89565b60405180910390f35b61039e600480360381019061039991906138f5565b610d59565b6040516103ab91906139db565b60405180910390f35b6103ce60048036038101906103c99190613ab2565b610dfe565b005b6103d8610e8a565b6040516103e591906137e8565b60405180910390f35b6103f6610f18565b005b610412600480360381019061040d91906139f6565b610f9e565b005b61042e60048036038101906104299190613840565b610fbe565b005b61044a60048036038101906104459190613840565b61101a565b60405161045791906139db565b60405180910390f35b61047a60048036038101906104759190613c3a565b61108b565b005b61048461111a565b604051610491919061373d565b60405180910390f35b6104b460048036038101906104af9190613840565b611131565b6040516104c191906138ae565b60405180910390f35b6104d26111e2565b6040516104df91906137e8565b60405180910390f35b61050260048036038101906104fd9190613c83565b611270565b60405161050f91906139db565b60405180910390f35b610532600480360381019061052d9190613840565b611327565b60405161053f91906139db565b60405180910390f35b610550611347565b005b61056c60048036038101906105679190613d78565b6113cf565b005b61058860048036038101906105839190613e03565b611477565b005b610592611504565b60405161059f91906139db565b60405180910390f35b6105b0611515565b005b6105ba61159b565b6040516105c791906138ae565b60405180910390f35b6105d86115c5565b6040516105e591906137e8565b60405180910390f35b6105f6611657565b6040516106039190613e95565b60405180910390f35b61062660048036038101906106219190613edc565b611662565b005b610642600480360381019061063d9190613f1c565b611678565b005b61065e60048036038101906106599190613c83565b611748565b005b61067a60048036038101906106759190614040565b611808565b005b61069660048036038101906106919190613c83565b61186a565b6040516106a3919061373d565b60405180910390f35b6106c660048036038101906106c191906140c3565b6118f9565b6040516106d391906141d4565b60405180910390f35b6106f660048036038101906106f19190613840565b611a0d565b60405161070391906137e8565b60405180910390f35b610726600480360381019061072191906140c3565b611ab4565b005b610730611c40565b60405161073d91906138ae565b60405180910390f35b61074e611c66565b60405161075b91906137e8565b60405180910390f35b61077e600480360381019061077991906141f6565b611c94565b60405161078b919061373d565b60405180910390f35b6107ae60048036038101906107a99190613c83565b611d28565b005b6107b8611e1f565b6040516107c591906139db565b60405180910390f35b60007f2a55205a000000000000000000000000000000000000000000000000000000007bffffffffffffffffffffffffffffffffffffffffffffffffffffffff1916827bffffffffffffffffffffffffffffffffffffffffffffffffffffffff19161480610841575061084082611e2b565b5b9050919050565b60606000805461085790614265565b80601f016020809104026020016040519081016040528092919081815260200182805461088390614265565b80156108d05780601f106108a5576101008083540402835291602001916108d0565b820191906000526020600020905b8154815290600101906020018083116108b357829003601f168201915b5050505050905090565b60006108e582611ff1565b610924576040517f08c379a000000000000000000000000000000000000000000000000000000000815260040161091b90614308565b60405180910390fd5b6004600083815260200190815260200160002060009054906101000a900473ffffffffffffffffffffffffffffffffffffffff169050919050565b600061096a82611131565b90508073ffffffffffffffffffffffffffffffffffffffff168373ffffffffffffffffffffffffffffffffffffffff16036109da576040517f08c379a00000000000000000000000000000000000000000000000000000000081526004016109d19061439a565b60405180910390fd5b8073ffffffffffffffffffffffffffffffffffffffff166109f961205d565b73ffffffffffffffffffffffffffffffffffffffff161480610a285750610a2781610a2261205d565b611c94565b5b610a67576040517f08c379a0000000000000000000000000000000000000000000000000000000008152600401610a5e9061442c565b60405180910390fd5b610a718383612065565b505050565b610a7e61205d565b73ffffffffffffffffffffffffffffffffffffffff16610a9c61159b565b73ffffffffffffffffffffffffffffffffffffffff1614610af2576040517f08c379a0000000000000000000000000000000000000000000000000000000008152600401610ae990614498565b60405180910390fd5b610afd83838361211e565b505050565b6000600880549050905090565b610b20610b1a61205d565b826122c5565b610b5f576040517f08c379a0000000000000000000000000000000000000000000000000000000008152600401610b569061452a565b60405180910390fd5b610b6a8383836123a3565b505050565b6000806000600c60008681526020019081526020016000206040518060400160405290816000820160009054906101000a900473ffffffffffffffffffffffffffffffffffffffff1673ffffffffffffffffffffffffffffffffffffffff1673ffffffffffffffffffffffffffffffffffffffff1681526020016000820160149054906101000a90046bffffffffffffffffffffffff166bffffffffffffffffffffffff166bffffffffffffffffffffffff16815250509050600073ffffffffffffffffffffffffffffffffffffffff16816000015173ffffffffffffffffffffffffffffffffffffffff1603610d0457600b6040518060400160405290816000820160009054906101000a900473ffffffffffffffffffffffffffffffffffffffff1673ffffffffffffffffffffffffffffffffffffffff1673ffffffffffffffffffffffffffffffffffffffff1681526020016000820160149054906101000a90046bffffffffffffffffffffffff166bffffffffffffffffffffffff166bffffffffffffffffffffffff168152505090505b6000610d0e612609565b6bffffffffffffffffffffffff1682602001516bffffffffffffffffffffffff1686610d3a9190614579565b610d449190614602565b90508160000151819350935050509250929050565b6000610d6483611270565b8210610da5576040517f08c379a0000000000000000000000000000000000000000000000000000000008152600401610d9c906146a5565b60405180910390fd5b600660008473ffffffffffffffffffffffffffffffffffffffff1673ffffffffffffffffffffffffffffffffffffffff168152602001908152602001600020600083815260200190815260200160002054905092915050565b610e0661205d565b73ffffffffffffffffffffffffffffffffffffffff16610e2461159b565b73ffffffffffffffffffffffffffffffffffffffff1614610e7a576040517f08c379a0000000000000000000000000000000000000000000000000000000008152600401610e7190614498565b60405180910390fd5b610e85838383612613565b505050565b600e8054610e9790614265565b80601f0160208091040260200160405190810160405280929190818152602001828054610ec390614265565b8015610f105780601f10610ee557610100808354040283529160200191610f10565b820191906000526020600020905b815481529060010190602001808311610ef357829003601f168201915b505050505081565b610f2061205d565b73ffffffffffffffffffffffffffffffffffffffff16610f3e61159b565b73ffffffffffffffffffffffffffffffffffffffff1614610f94576040517f08c379a0000000000000000000000000000000000000000000000000000000008152600401610f8b90614498565b60405180910390fd5b610f9c6126b5565b565b610fb983838360405180602001604052806000815250611808565b505050565b610fcf610fc961205d565b826122c5565b61100e576040517f08c379a000000000000000000000000000000000000000000000000000000000815260040161100590614737565b60405180910390fd5b61101781612757565b50565b6000611024610b02565b8210611065576040517f08c379a000000000000000000000000000000000000000000000000000000000815260040161105c906147c9565b60405180910390fd5b60088281548110611079576110786147e9565b5b90600052602060002001549050919050565b61109361205d565b73ffffffffffffffffffffffffffffffffffffffff166110b161159b565b73ffffffffffffffffffffffffffffffffffffffff1614611107576040517f08c379a00000000000000000000000000000000000000000000000000000000081526004016110fe90614498565b60405180910390fd5b806010908161111691906149c4565b5050565b6000600a60009054906101000a900460ff16905090565b6000806002600084815260200190815260200160002060009054906101000a900473ffffffffffffffffffffffffffffffffffffffff169050600073ffffffffffffffffffffffffffffffffffffffff168173ffffffffffffffffffffffffffffffffffffffff16036111d9576040517f08c379a00000000000000000000000000000000000000000000000000000000081526004016111d090614b08565b60405180910390fd5b80915050919050565b601080546111ef90614265565b80601f016020809104026020016040519081016040528092919081815260200182805461121b90614265565b80156112685780601f1061123d57610100808354040283529160200191611268565b820191906000526020600020905b81548152906001019060200180831161124b57829003601f168201915b505050505081565b60008073ffffffffffffffffffffffffffffffffffffffff168273ffffffffffffffffffffffffffffffffffffffff16036112e0576040517f08c379a00000000000000000000000000000000000000000000000000000000081526004016112d790614b9a565b60405180910390fd5b600360008373ffffffffffffffffffffffffffffffffffffffff1673ffffffffffffffffffffffffffffffffffffffff168152602001908152602001600020549050919050565b600060126000838152602001908152602001600020600001549050919050565b61134f61205d565b73ffffffffffffffffffffffffffffffffffffffff1661136d61159b565b73ffffffffffffffffffffffffffffffffffffffff16146113c3576040517f08c379a00000000000000000000000000000000000000000000000000000000081526004016113ba90614498565b60405180910390fd5b6113cd6000612874565b565b8051825114611413576040517f08c379a000000000000000000000000000000000000000000000000000000000815260040161140a90614c2c565b60405180910390fd5b60005b82518110156114715761145e84848381518110611436576114356147e9565b5b6020026020010151848481518110611451576114506147e9565b5b6020026020010151611ab4565b808061146990614c4c565b915050611416565b50505050565b818351146114ba576040517f08c379a00000000000000000000000000000000000000000000000000000000081526004016114b190614ce0565b60405180910390fd5b60005b828110156114fd576114ea858583815181106114dc576114db6147e9565b5b602002602001015184612613565b80806114f590614c4c565b9150506114bd565b5050505050565b6000611510600f61293a565b905090565b61151d61205d565b73ffffffffffffffffffffffffffffffffffffffff1661153b61159b565b73ffffffffffffffffffffffffffffffffffffffff1614611591576040517f08c379a000000000000000000000000000000000000000000000000000000000815260040161158890614498565b60405180910390fd5b611599612948565b565b6000600d60009054906101000a900473ffffffffffffffffffffffffffffffffffffffff16905090565b6060600180546115d490614265565b80601f016020809104026020016040519081016040528092919081815260200182805461160090614265565b801561164d5780601f106116225761010080835404028352916020019161164d565b820191906000526020600020905b81548152906001019060200180831161163057829003601f168201915b5050505050905090565b632a55205a60e01b81565b61167461166d61205d565b83836129eb565b5050565b61168061205d565b73ffffffffffffffffffffffffffffffffffffffff1661169e61159b565b73ffffffffffffffffffffffffffffffffffffffff16146116f4576040517f08c379a00000000000000000000000000000000000000000000000000000000081526004016116eb90614498565b60405180910390fd5b60005b825181101561173657611723838281518110611716576117156147e9565b5b6020026020010151612757565b808061172e90614c4c565b9150506116f7565b50611742848483612613565b50505050565b61175061205d565b73ffffffffffffffffffffffffffffffffffffffff1661176e61159b565b73ffffffffffffffffffffffffffffffffffffffff16146117c4576040517f08c379a00000000000000000000000000000000000000000000000000000000081526004016117bb90614498565b60405180910390fd5b80601160006101000a81548173ffffffffffffffffffffffffffffffffffffffff021916908373ffffffffffffffffffffffffffffffffffffffff16021790555050565b61181961181361205d565b836122c5565b611858576040517f08c379a000000000000000000000000000000000000000000000000000000000815260040161184f9061452a565b60405180910390fd5b61186484848484612b57565b50505050565b6000808273ffffffffffffffffffffffffffffffffffffffff166301ffc9a7632a55205a60e01b6040518263ffffffff1660e01b81526004016118ad9190613e95565b602060405180830381865afa1580156118ca573d6000803e3d6000fd5b505050506040513d601f19601f820116820180604052508101906118ee9190614d15565b905080915050919050565b60608183111561193e576040517f08c379a000000000000000000000000000000000000000000000000000000000815260040161193590614db4565b60405180910390fd5b60006001848461194e9190614dd4565b6119589190614e08565b90506000808267ffffffffffffffff81111561197757611976613b0f565b5b6040519080825280602002602001820160405280156119a55781602001602082028036833780820191505090505b50905060008690505b8581116119ff576119bf8882610d59565b8284815181106119d2576119d16147e9565b5b60200260200101818152505082806119e990614c4c565b93505080806119f790614c4c565b9150506119ae565b508093505050509392505050565b6060611a1882611ff1565b611a57576040517f08c379a0000000000000000000000000000000000000000000000000000000008152600401611a4e90614eae565b60405180910390fd5b6000611a61612bb3565b90506000815111611a815760405180602001604052806000815250611aac565b80611a8b84612c45565b604051602001611a9c929190614f0a565b6040516020818303038152906040525b915050919050565b600080611ac18484610b6f565b809250819350505060008184611ad79190614dd4565b90506000611ae486611131565b9050601160009054906101000a900473ffffffffffffffffffffffffffffffffffffffff1673ffffffffffffffffffffffffffffffffffffffff166323b872dd8883856040518463ffffffff1660e01b8152600401611b4593929190614f2e565b6020604051808303816000875af1158015611b64573d6000803e3d6000fd5b505050506040513d601f19601f82011682018060405250810190611b889190614d15565b50601160009054906101000a900473ffffffffffffffffffffffffffffffffffffffff1673ffffffffffffffffffffffffffffffffffffffff166323b872dd8886866040518463ffffffff1660e01b8152600401611be893929190614f2e565b6020604051808303816000875af1158015611c07573d6000803e3d6000fd5b505050506040513d601f19601f82011682018060405250810190611c2b9190614d15565b50611c37818888610f9e565b50505050505050565b601160009054906101000a900473ffffffffffffffffffffffffffffffffffffffff1681565b6060611c70612bb3565b604051602001611c809190614fb1565b604051602081830303815290604052905090565b6000600560008473ffffffffffffffffffffffffffffffffffffffff1673ffffffffffffffffffffffffffffffffffffffff16815260200190815260200160002060008373ffffffffffffffffffffffffffffffffffffffff1673ffffffffffffffffffffffffffffffffffffffff16815260200190815260200160002060009054906101000a900460ff16905092915050565b611d3061205d565b73ffffffffffffffffffffffffffffffffffffffff16611d4e61159b565b73ffffffffffffffffffffffffffffffffffffffff1614611da4576040517f08c379a0000000000000000000000000000000000000000000000000000000008152600401611d9b90614498565b60405180910390fd5b600073ffffffffffffffffffffffffffffffffffffffff168173ffffffffffffffffffffffffffffffffffffffff1603611e13576040517f08c379a0000000000000000000000000000000000000000000000000000000008152600401611e0a90615045565b60405180910390fd5b611e1c81612874565b50565b600f8060000154905081565b60007f780e9d63000000000000000000000000000000000000000000000000000000007bffffffffffffffffffffffffffffffffffffffffffffffffffffffff1916827bffffffffffffffffffffffffffffffffffffffffffffffffffffffff19161480611e9e5750611e9d82611ea5565b5b9050919050565b60007f80ac58cd000000000000000000000000000000000000000000000000000000007bffffffffffffffffffffffffffffffffffffffffffffffffffffffff1916827bffffffffffffffffffffffffffffffffffffffffffffffffffffffff19161480611f7057507f5b5e139f000000000000000000000000000000000000000000000000000000007bffffffffffffffffffffffffffffffffffffffffffffffffffffffff1916827bffffffffffffffffffffffffffffffffffffffffffffffffffffffff1916145b80611f805750611f7f82611f87565b5b9050919050565b60007f01ffc9a7000000000000000000000000000000000000000000000000000000007bffffffffffffffffffffffffffffffffffffffffffffffffffffffff1916827bffffffffffffffffffffffffffffffffffffffffffffffffffffffff1916149050919050565b60008073ffffffffffffffffffffffffffffffffffffffff166002600084815260200190815260200160002060009054906101000a900473ffffffffffffffffffffffffffffffffffffffff1673ffffffffffffffffffffffffffffffffffffffff1614159050919050565b600033905090565b816004600083815260200190815260200160002060006101000a81548173ffffffffffffffffffffffffffffffffffffffff021916908373ffffffffffffffffffffffffffffffffffffffff160217905550808273ffffffffffffffffffffffffffffffffffffffff166120d883611131565b73ffffffffffffffffffffffffffffffffffffffff167f8c5be1e5ebec7d5bd14f71427d1e84f3dd0314c0f7b2291e5b200ac8c7c3b92560405160405180910390a45050565b612126612609565b6bffffffffffffffffffffffff16816bffffffffffffffffffffffff161115612184576040517f08c379a000000000000000000000000000000000000000000000000000000000815260040161217b906150d7565b60405180910390fd5b600073ffffffffffffffffffffffffffffffffffffffff168273ffffffffffffffffffffffffffffffffffffffff16036121f3576040517f08c379a00000000000000000000000000000000000000000000000000000000081526004016121ea90615143565b60405180910390fd5b60405180604001604052808373ffffffffffffffffffffffffffffffffffffffff168152602001826bffffffffffffffffffffffff16815250600c600085815260200190815260200160002060008201518160000160006101000a81548173ffffffffffffffffffffffffffffffffffffffff021916908373ffffffffffffffffffffffffffffffffffffffff16021790555060208201518160000160146101000a8154816bffffffffffffffffffffffff02191690836bffffffffffffffffffffffff160217905550905050505050565b60006122d082611ff1565b61230f576040517f08c379a0000000000000000000000000000000000000000000000000000000008152600401612306906151d5565b60405180910390fd5b600061231a83611131565b90508073ffffffffffffffffffffffffffffffffffffffff168473ffffffffffffffffffffffffffffffffffffffff16148061235c575061235b8185611c94565b5b8061239a57508373ffffffffffffffffffffffffffffffffffffffff16612382846108da565b73ffffffffffffffffffffffffffffffffffffffff16145b91505092915050565b8273ffffffffffffffffffffffffffffffffffffffff166123c382611131565b73ffffffffffffffffffffffffffffffffffffffff1614612419576040517f08c379a000000000000000000000000000000000000000000000000000000000815260040161241090615267565b60405180910390fd5b600073ffffffffffffffffffffffffffffffffffffffff168273ffffffffffffffffffffffffffffffffffffffff1603612488576040517f08c379a000000000000000000000000000000000000000000000000000000000815260040161247f906152f9565b60405180910390fd5b612493838383612da5565b61249e600082612065565b6001600360008573ffffffffffffffffffffffffffffffffffffffff1673ffffffffffffffffffffffffffffffffffffffff16815260200190815260200160002060008282546124ee9190614dd4565b925050819055506001600360008473ffffffffffffffffffffffffffffffffffffffff1673ffffffffffffffffffffffffffffffffffffffff16815260200190815260200160002060008282546125459190614e08565b92505081905550816002600083815260200190815260200160002060006101000a81548173ffffffffffffffffffffffffffffffffffffffff021916908373ffffffffffffffffffffffffffffffffffffffff160217905550808273ffffffffffffffffffffffffffffffffffffffff168473ffffffffffffffffffffffffffffffffffffffff167fddf252ad1be2c89b69c2b068fc378daa952ba7f163c4a11628f55a4df523b3ef60405160405180910390a4612604838383612dfd565b505050565b6000612710905090565b61261d600f612e02565b6000612629600f61293a565b90506126358482612e18565b6126478161264161159b565b84610a76565b60405180602001604052808481525060126000838152602001908152602001600020600082015181600001559050507f575c4b02fc3ec1f5a090ceeedc497e52dab682f10bdba8ecc92761d02051762984826040516126a7929190613a89565b60405180910390a150505050565b6126bd61111a565b6126fc576040517f08c379a00000000000000000000000000000000000000000000000000000000081526004016126f390615365565b60405180910390fd5b6000600a60006101000a81548160ff0219169083151502179055507f5db9ee0a495bf2e6ff9c91a7834c1ba4fdd244a5e8aa4e537bd38aeae4b073aa61274061205d565b60405161274d91906138ae565b60405180910390a1565b600061276282611131565b905061277081600084612da5565b61277b600083612065565b6001600360008373ffffffffffffffffffffffffffffffffffffffff1673ffffffffffffffffffffffffffffffffffffffff16815260200190815260200160002060008282546127cb9190614dd4565b925050819055506002600083815260200190815260200160002060006101000a81549073ffffffffffffffffffffffffffffffffffffffff021916905581600073ffffffffffffffffffffffffffffffffffffffff168273ffffffffffffffffffffffffffffffffffffffff167fddf252ad1be2c89b69c2b068fc378daa952ba7f163c4a11628f55a4df523b3ef60405160405180910390a461287081600084612dfd565b5050565b6000600d60009054906101000a900473ffffffffffffffffffffffffffffffffffffffff16905081600d60006101000a81548173ffffffffffffffffffffffffffffffffffffffff021916908373ffffffffffffffffffffffffffffffffffffffff1602179055508173ffffffffffffffffffffffffffffffffffffffff168173ffffffffffffffffffffffffffffffffffffffff167f8be0079c531659141344cd1fd0a4f28419497f9722a3daafe3b4186f6b6457e060405160405180910390a35050565b600081600001549050919050565b61295061111a565b15612990576040517f08c379a0000000000000000000000000000000000000000000000000000000008152600401612987906153d1565b60405180910390fd5b6001600a60006101000a81548160ff0219169083151502179055507f62e78cea01bee320cd4e420270b5ea74000d11b0c9f74754ebdbfc544b05a2586129d461205d565b6040516129e191906138ae565b60405180910390a1565b8173ffffffffffffffffffffffffffffffffffffffff168373ffffffffffffffffffffffffffffffffffffffff1603612a59576040517f08c379a0000000000000000000000000000000000000000000000000000000008152600401612a509061543d565b60405180910390fd5b80600560008573ffffffffffffffffffffffffffffffffffffffff1673ffffffffffffffffffffffffffffffffffffffff16815260200190815260200160002060008473ffffffffffffffffffffffffffffffffffffffff1673ffffffffffffffffffffffffffffffffffffffff16815260200190815260200160002060006101000a81548160ff0219169083151502179055508173ffffffffffffffffffffffffffffffffffffffff168373ffffffffffffffffffffffffffffffffffffffff167f17307eab39ab6107e8899845ad3d59bd9653f200f220920489ca2b5937696c3183604051612b4a919061373d565b60405180910390a3505050565b612b628484846123a3565b612b6e84848484612e36565b612bad576040517f08c379a0000000000000000000000000000000000000000000000000000000008152600401612ba4906154cf565b60405180910390fd5b50505050565b606060108054612bc290614265565b80601f0160208091040260200160405190810160405280929190818152602001828054612bee90614265565b8015612c3b5780601f10612c1057610100808354040283529160200191612c3b565b820191906000526020600020905b815481529060010190602001808311612c1e57829003601f168201915b5050505050905090565b606060008203612c8c576040518060400160405280600181526020017f30000000000000000000000000000000000000000000000000000000000000008152509050612da0565b600082905060005b60008214612cbe578080612ca790614c4c565b915050600a82612cb79190614602565b9150612c94565b60008167ffffffffffffffff811115612cda57612cd9613b0f565b5b6040519080825280601f01601f191660200182016040528015612d0c5781602001600182028036833780820191505090505b5090505b60008514612d9957600182612d259190614dd4565b9150600a85612d3491906154ef565b6030612d409190614e08565b60f81b818381518110612d5657612d556147e9565b5b60200101907effffffffffffffffffffffffffffffffffffffffffffffffffffffffffffff1916908160001a905350600a85612d929190614602565b9450612d10565b8093505050505b919050565b612dad61111a565b15612ded576040517f08c379a0000000000000000000000000000000000000000000000000000000008152600401612de4906153d1565b60405180910390fd5b612df8838383612fbd565b505050565b505050565b6001816000016000828254019250508190555050565b612e32828260405180602001604052806000815250613015565b5050565b6000612e578473ffffffffffffffffffffffffffffffffffffffff16613070565b15612fb0578373ffffffffffffffffffffffffffffffffffffffff1663150b7a02612e8061205d565b8786866040518563ffffffff1660e01b8152600401612ea29493929190615575565b6020604051808303816000875af1925050508015612ede57506040513d601f19601f82011682018060405250810190612edb91906155d6565b60015b612f60573d8060008114612f0e576040519150601f19603f3d011682016040523d82523d6000602084013e612f13565b606091505b506000815103612f58576040517f08c379a0000000000000000000000000000000000000000000000000000000008152600401612f4f906154cf565b60405180910390fd5b805181602001fd5b63150b7a0260e01b7bffffffffffffffffffffffffffffffffffffffffffffffffffffffff1916817bffffffffffffffffffffffffffffffffffffffffffffffffffffffff191614915050612fb5565b600190505b949350505050565b612fc8838383613093565b612fd061111a565b15613010576040517f08c379a000000000000000000000000000000000000000000000000000000000815260040161300790615675565b60405180910390fd5b505050565b61301f83836131a5565b61302c6000848484612e36565b61306b576040517f08c379a0000000000000000000000000000000000000000000000000000000008152600401613062906154cf565b60405180910390fd5b505050565b6000808273ffffffffffffffffffffffffffffffffffffffff163b119050919050565b61309e83838361337e565b600073ffffffffffffffffffffffffffffffffffffffff168373ffffffffffffffffffffffffffffffffffffffff16036130e0576130db81613383565b61311f565b8173ffffffffffffffffffffffffffffffffffffffff168373ffffffffffffffffffffffffffffffffffffffff161461311e5761311d83826133cc565b5b5b600073ffffffffffffffffffffffffffffffffffffffff168273ffffffffffffffffffffffffffffffffffffffff16036131615761315c81613539565b6131a0565b8273ffffffffffffffffffffffffffffffffffffffff168273ffffffffffffffffffffffffffffffffffffffff161461319f5761319e828261360a565b5b5b505050565b600073ffffffffffffffffffffffffffffffffffffffff168273ffffffffffffffffffffffffffffffffffffffff1603613214576040517f08c379a000000000000000000000000000000000000000000000000000000000815260040161320b906156e1565b60405180910390fd5b61321d81611ff1565b1561325d576040517f08c379a00000000000000000000000000000000000000000000000000000000081526004016132549061574d565b60405180910390fd5b61326960008383612da5565b6001600360008473ffffffffffffffffffffffffffffffffffffffff1673ffffffffffffffffffffffffffffffffffffffff16815260200190815260200160002060008282546132b99190614e08565b92505081905550816002600083815260200190815260200160002060006101000a81548173ffffffffffffffffffffffffffffffffffffffff021916908373ffffffffffffffffffffffffffffffffffffffff160217905550808273ffffffffffffffffffffffffffffffffffffffff16600073ffffffffffffffffffffffffffffffffffffffff167fddf252ad1be2c89b69c2b068fc378daa952ba7f163c4a11628f55a4df523b3ef60405160405180910390a461337a60008383612dfd565b5050565b505050565b6008805490506009600083815260200190815260200160002081905550600881908060018154018082558091505060019003906000526020600020016000909190919091505550565b600060016133d984611270565b6133e39190614dd4565b90506000600760008481526020019081526020016000205490508181146134c8576000600660008673ffffffffffffffffffffffffffffffffffffffff1673ffffffffffffffffffffffffffffffffffffffff168152602001908152602001600020600084815260200190815260200160002054905080600660008773ffffffffffffffffffffffffffffffffffffffff1673ffffffffffffffffffffffffffffffffffffffff168152602001908152602001600020600084815260200190815260200160002081905550816007600083815260200190815260200160002081905550505b6007600084815260200190815260200160002060009055600660008573ffffffffffffffffffffffffffffffffffffffff1673ffffffffffffffffffffffffffffffffffffffff16815260200190815260200160002060008381526020019081526020016000206000905550505050565b6000600160088054905061354d9190614dd4565b905060006009600084815260200190815260200160002054905060006008838154811061357d5761357c6147e9565b5b90600052602060002001549050806008838154811061359f5761359e6147e9565b5b9060005260206000200181905550816009600083815260200190815260200160002081905550600960008581526020019081526020016000206000905560088054806135ee576135ed61576d565b5b6001900381819060005260206000200160009055905550505050565b600061361583611270565b905081600660008573ffffffffffffffffffffffffffffffffffffffff1673ffffffffffffffffffffffffffffffffffffffff168152602001908152602001600020600083815260200190815260200160002081905550806007600084815260200190815260200160002081905550505050565b6000604051905090565b600080fd5b600080fd5b60007fffffffff0000000000000000000000000000000000000000000000000000000082169050919050565b6136d28161369d565b81146136dd57600080fd5b50565b6000813590506136ef816136c9565b92915050565b60006020828403121561370b5761370a613693565b5b6000613719848285016136e0565b91505092915050565b60008115159050919050565b61373781613722565b82525050565b6000602082019050613752600083018461372e565b92915050565b600081519050919050565b600082825260208201905092915050565b60005b83811015613792578082015181840152602081019050613777565b60008484015250505050565b6000601f19601f8301169050919050565b60006137ba82613758565b6137c48185613763565b93506137d4818560208601613774565b6137dd8161379e565b840191505092915050565b6000602082019050818103600083015261380281846137af565b905092915050565b6000819050919050565b61381d8161380a565b811461382857600080fd5b50565b60008135905061383a81613814565b92915050565b60006020828403121561385657613855613693565b5b60006138648482850161382b565b91505092915050565b600073ffffffffffffffffffffffffffffffffffffffff82169050919050565b60006138988261386d565b9050919050565b6138a88161388d565b82525050565b60006020820190506138c3600083018461389f565b92915050565b6138d28161388d565b81146138dd57600080fd5b50565b6000813590506138ef816138c9565b92915050565b6000806040838503121561390c5761390b613693565b5b600061391a858286016138e0565b925050602061392b8582860161382b565b9150509250929050565b60006bffffffffffffffffffffffff82169050919050565b61395681613935565b811461396157600080fd5b50565b6000813590506139738161394d565b92915050565b60008060006060848603121561399257613991613693565b5b60006139a08682870161382b565b93505060206139b1868287016138e0565b92505060406139c286828701613964565b9150509250925092565b6139d58161380a565b82525050565b60006020820190506139f060008301846139cc565b92915050565b600080600060608486031215613a0f57613a0e613693565b5b6000613a1d868287016138e0565b9350506020613a2e868287016138e0565b9250506040613a3f8682870161382b565b9150509250925092565b60008060408385031215613a6057613a5f613693565b5b6000613a6e8582860161382b565b9250506020613a7f8582860161382b565b9150509250929050565b6000604082019050613a9e600083018561389f565b613aab60208301846139cc565b9392505050565b600080600060608486031215613acb57613aca613693565b5b6000613ad9868287016138e0565b9350506020613aea8682870161382b565b9250506040613afb86828701613964565b9150509250925092565b600080fd5b600080fd5b7f4e487b7100000000000000000000000000000000000000000000000000000000600052604160045260246000fd5b613b478261379e565b810181811067ffffffffffffffff82111715613b6657613b65613b0f565b5b80604052505050565b6000613b79613689565b9050613b858282613b3e565b919050565b600067ffffffffffffffff821115613ba557613ba4613b0f565b5b613bae8261379e565b9050602081019050919050565b82818337600083830152505050565b6000613bdd613bd884613b8a565b613b6f565b905082815260208101848484011115613bf957613bf8613b0a565b5b613c04848285613bbb565b509392505050565b600082601f830112613c2157613c20613b05565b5b8135613c31848260208601613bca565b91505092915050565b600060208284031215613c5057613c4f613693565b5b600082013567ffffffffffffffff811115613c6e57613c6d613698565b5b613c7a84828501613c0c565b91505092915050565b600060208284031215613c9957613c98613693565b5b6000613ca7848285016138e0565b91505092915050565b600067ffffffffffffffff821115613ccb57613cca613b0f565b5b602082029050602081019050919050565b600080fd5b6000613cf4613cef84613cb0565b613b6f565b90508083825260208201905060208402830185811115613d1757613d16613cdc565b5b835b81811015613d405780613d2c888261382b565b845260208401935050602081019050613d19565b5050509392505050565b600082601f830112613d5f57613d5e613b05565b5b8135613d6f848260208601613ce1565b91505092915050565b600080600060608486031215613d9157613d90613693565b5b6000613d9f868287016138e0565b935050602084013567ffffffffffffffff811115613dc057613dbf613698565b5b613dcc86828701613d4a565b925050604084013567ffffffffffffffff811115613ded57613dec613698565b5b613df986828701613d4a565b9150509250925092565b60008060008060808587031215613e1d57613e1c613693565b5b6000613e2b878288016138e0565b945050602085013567ffffffffffffffff811115613e4c57613e4b613698565b5b613e5887828801613d4a565b9350506040613e698782880161382b565b9250506060613e7a87828801613964565b91505092959194509250565b613e8f8161369d565b82525050565b6000602082019050613eaa6000830184613e86565b92915050565b613eb981613722565b8114613ec457600080fd5b50565b600081359050613ed681613eb0565b92915050565b60008060408385031215613ef357613ef2613693565b5b6000613f01858286016138e0565b9250506020613f1285828601613ec7565b9150509250929050565b60008060008060808587031215613f3657613f35613693565b5b6000613f44878288016138e0565b9450506020613f558782880161382b565b935050604085013567ffffffffffffffff811115613f7657613f75613698565b5b613f8287828801613d4a565b9250506060613f9387828801613964565b91505092959194509250565b600067ffffffffffffffff821115613fba57613fb9613b0f565b5b613fc38261379e565b9050602081019050919050565b6000613fe3613fde84613f9f565b613b6f565b905082815260208101848484011115613fff57613ffe613b0a565b5b61400a848285613bbb565b509392505050565b600082601f83011261402757614026613b05565b5b8135614037848260208601613fd0565b91505092915050565b6000806000806080858703121561405a57614059613693565b5b6000614068878288016138e0565b9450506020614079878288016138e0565b935050604061408a8782880161382b565b925050606085013567ffffffffffffffff8111156140ab576140aa613698565b5b6140b787828801614012565b91505092959194509250565b6000806000606084860312156140dc576140db613693565b5b60006140ea868287016138e0565b93505060206140fb8682870161382b565b925050604061410c8682870161382b565b9150509250925092565b600081519050919050565b600082825260208201905092915050565b6000819050602082019050919050565b61414b8161380a565b82525050565b600061415d8383614142565b60208301905092915050565b6000602082019050919050565b600061418182614116565b61418b8185614121565b935061419683614132565b8060005b838110156141c75781516141ae8882614151565b97506141b983614169565b92505060018101905061419a565b5085935050505092915050565b600060208201905081810360008301526141ee8184614176565b905092915050565b6000806040838503121561420d5761420c613693565b5b600061421b858286016138e0565b925050602061422c858286016138e0565b9150509250929050565b7f4e487b7100000000000000000000000000000000000000000000000000000000600052602260045260246000fd5b6000600282049050600182168061427d57607f821691505b6020821081036142905761428f614236565b5b50919050565b7f4552433732313a20617070726f76656420717565727920666f72206e6f6e657860008201527f697374656e7420746f6b656e0000000000000000000000000000000000000000602082015250565b60006142f2602c83613763565b91506142fd82614296565b604082019050919050565b60006020820190508181036000830152614321816142e5565b9050919050565b7f4552433732313a20617070726f76616c20746f2063757272656e74206f776e6560008201527f7200000000000000000000000000000000000000000000000000000000000000602082015250565b6000614384602183613763565b915061438f82614328565b604082019050919050565b600060208201905081810360008301526143b381614377565b9050919050565b7f4552433732313a20617070726f76652063616c6c6572206973206e6f74206f7760008201527f6e6572206e6f7220617070726f76656420666f7220616c6c0000000000000000602082015250565b6000614416603883613763565b9150614421826143ba565b604082019050919050565b6000602082019050818103600083015261444581614409565b9050919050565b7f4f776e61626c653a2063616c6c6572206973206e6f7420746865206f776e6572600082015250565b6000614482602083613763565b915061448d8261444c565b602082019050919050565b600060208201905081810360008301526144b181614475565b9050919050565b7f4552433732313a207472616e736665722063616c6c6572206973206e6f74206f60008201527f776e6572206e6f7220617070726f766564000000000000000000000000000000602082015250565b6000614514603183613763565b915061451f826144b8565b604082019050919050565b6000602082019050818103600083015261454381614507565b9050919050565b7f4e487b7100000000000000000000000000000000000000000000000000000000600052601160045260246000fd5b60006145848261380a565b915061458f8361380a565b9250817fffffffffffffffffffffffffffffffffffffffffffffffffffffffffffffffff04831182151516156145c8576145c761454a565b5b828202905092915050565b7f4e487b7100000000000000000000000000000000000000000000000000000000600052601260045260246000fd5b600061460d8261380a565b91506146188361380a565b925082614628576146276145d3565b5b828204905092915050565b7f455243373231456e756d657261626c653a206f776e657220696e646578206f7560008201527f74206f6620626f756e6473000000000000000000000000000000000000000000602082015250565b600061468f602b83613763565b915061469a82614633565b604082019050919050565b600060208201905081810360008301526146be81614682565b9050919050565b7f4552433732314275726e61626c653a2063616c6c6572206973206e6f74206f7760008201527f6e6572206e6f7220617070726f76656400000000000000000000000000000000602082015250565b6000614721603083613763565b915061472c826146c5565b604082019050919050565b6000602082019050818103600083015261475081614714565b9050919050565b7f455243373231456e756d657261626c653a20676c6f62616c20696e646578206f60008201527f7574206f6620626f756e64730000000000000000000000000000000000000000602082015250565b60006147b3602c83613763565b91506147be82614757565b604082019050919050565b600060208201905081810360008301526147e2816147a6565b9050919050565b7f4e487b7100000000000000000000000000000000000000000000000000000000600052603260045260246000fd5b60008190508160005260206000209050919050565b60006020601f8301049050919050565b600082821b905092915050565b60006008830261487a7fffffffffffffffffffffffffffffffffffffffffffffffffffffffffffffffff8261483d565b614884868361483d565b95508019841693508086168417925050509392505050565b6000819050919050565b60006148c16148bc6148b78461380a565b61489c565b61380a565b9050919050565b6000819050919050565b6148db836148a6565b6148ef6148e7826148c8565b84845461484a565b825550505050565b600090565b6149046148f7565b61490f8184846148d2565b505050565b5b81811015614933576149286000826148fc565b600181019050614915565b5050565b601f8211156149785761494981614818565b6149528461482d565b81016020851015614961578190505b61497561496d8561482d565b830182614914565b50505b505050565b600082821c905092915050565b600061499b6000198460080261497d565b1980831691505092915050565b60006149b4838361498a565b9150826002028217905092915050565b6149cd82613758565b67ffffffffffffffff8111156149e6576149e5613b0f565b5b6149f08254614265565b6149fb828285614937565b600060209050601f831160018114614a2e5760008415614a1c578287015190505b614a2685826149a8565b865550614a8e565b601f198416614a3c86614818565b60005b82811015614a6457848901518255600182019150602085019450602081019050614a3f565b86831015614a815784890151614a7d601f89168261498a565b8355505b6001600288020188555050505b505050505050565b7f4552433732313a206f776e657220717565727920666f72206e6f6e657869737460008201527f656e7420746f6b656e0000000000000000000000000000000000000000000000602082015250565b6000614af2602983613763565b9150614afd82614a96565b604082019050919050565b60006020820190508181036000830152614b2181614ae5565b9050919050565b7f4552433732313a2062616c616e636520717565727920666f7220746865207a6560008201527f726f206164647265737300000000000000000000000000000000000000000000602082015250565b6000614b84602a83613763565b9150614b8f82614b28565b604082019050919050565b60006020820190508181036000830152614bb381614b77565b9050919050565b7f6d61726b65744d756c74693a2076616c756573206c656e677468206d69736d6160008201527f7463680000000000000000000000000000000000000000000000000000000000602082015250565b6000614c16602383613763565b9150614c2182614bba565b604082019050919050565b60006020820190508181036000830152614c4581614c09565b9050919050565b6000614c578261380a565b91507fffffffffffffffffffffffffffffffffffffffffffffffffffffffffffffffff8203614c8957614c8861454a565b5b600182019050919050565b7f756e7061636b3a2076616c756573206c656e677468206d69736d617463680000600082015250565b6000614cca601e83613763565b9150614cd582614c94565b602082019050919050565b60006020820190508181036000830152614cf981614cbd565b9050919050565b600081519050614d0f81613eb0565b92915050565b600060208284031215614d2b57614d2a613693565b5b6000614d3984828501614d00565b91505092915050565b7f746f6b656e734f664f776e65723a206d696e2076616c7565206973206269676760008201527f6572207468616e206d61782076616c7565000000000000000000000000000000602082015250565b6000614d9e603183613763565b9150614da982614d42565b604082019050919050565b60006020820190508181036000830152614dcd81614d91565b9050919050565b6000614ddf8261380a565b9150614dea8361380a565b9250828203905081811115614e0257614e0161454a565b5b92915050565b6000614e138261380a565b9150614e1e8361380a565b9250828201905080821115614e3657614e3561454a565b5b92915050565b7f4552433732314d657461646174613a2055524920717565727920666f72206e6f60008201527f6e6578697374656e7420746f6b656e0000000000000000000000000000000000602082015250565b6000614e98602f83613763565b9150614ea382614e3c565b604082019050919050565b60006020820190508181036000830152614ec781614e8b565b9050919050565b600081905092915050565b6000614ee482613758565b614eee8185614ece565b9350614efe818560208601613774565b80840191505092915050565b6000614f168285614ed9565b9150614f228284614ed9565b91508190509392505050565b6000606082019050614f43600083018661389f565b614f50602083018561389f565b614f5d60408301846139cc565b949350505050565b7f636f6e74726163742d6d65746100000000000000000000000000000000000000600082015250565b6000614f9b600d83614ece565b9150614fa682614f65565b600d82019050919050565b6000614fbd8284614ed9565b9150614fc882614f8e565b915081905092915050565b7f4f776e61626c653a206e6577206f776e657220697320746865207a65726f206160008201527f6464726573730000000000000000000000000000000000000000000000000000602082015250565b600061502f602683613763565b915061503a82614fd3565b604082019050919050565b6000602082019050818103600083015261505e81615022565b9050919050565b7f455243323938313a20726f79616c7479206665652077696c6c2065786365656460008201527f2073616c65507269636500000000000000000000000000000000000000000000602082015250565b60006150c1602a83613763565b91506150cc82615065565b604082019050919050565b600060208201905081810360008301526150f0816150b4565b9050919050565b7f455243323938313a20496e76616c696420706172616d65746572730000000000600082015250565b600061512d601b83613763565b9150615138826150f7565b602082019050919050565b6000602082019050818103600083015261515c81615120565b9050919050565b7f4552433732313a206f70657261746f7220717565727920666f72206e6f6e657860008201527f697374656e7420746f6b656e0000000000000000000000000000000000000000602082015250565b60006151bf602c83613763565b91506151ca82615163565b604082019050919050565b600060208201905081810360008301526151ee816151b2565b9050919050565b7f4552433732313a207472616e736665722066726f6d20696e636f72726563742060008201527f6f776e6572000000000000000000000000000000000000000000000000000000602082015250565b6000615251602583613763565b915061525c826151f5565b604082019050919050565b6000602082019050818103600083015261528081615244565b9050919050565b7f4552433732313a207472616e7366657220746f20746865207a65726f2061646460008201527f7265737300000000000000000000000000000000000000000000000000000000602082015250565b60006152e3602483613763565b91506152ee82615287565b604082019050919050565b60006020820190508181036000830152615312816152d6565b9050919050565b7f5061757361626c653a206e6f7420706175736564000000000000000000000000600082015250565b600061534f601483613763565b915061535a82615319565b602082019050919050565b6000602082019050818103600083015261537e81615342565b9050919050565b7f5061757361626c653a2070617573656400000000000000000000000000000000600082015250565b60006153bb601083613763565b91506153c682615385565b602082019050919050565b600060208201905081810360008301526153ea816153ae565b9050919050565b7f4552433732313a20617070726f766520746f2063616c6c657200000000000000600082015250565b6000615427601983613763565b9150615432826153f1565b602082019050919050565b600060208201905081810360008301526154568161541a565b9050919050565b7f4552433732313a207472616e7366657220746f206e6f6e20455243373231526560008201527f63656976657220696d706c656d656e7465720000000000000000000000000000602082015250565b60006154b9603283613763565b91506154c48261545d565b604082019050919050565b600060208201905081810360008301526154e8816154ac565b9050919050565b60006154fa8261380a565b91506155058361380a565b925082615515576155146145d3565b5b828206905092915050565b600081519050919050565b600082825260208201905092915050565b600061554782615520565b615551818561552b565b9350615561818560208601613774565b61556a8161379e565b840191505092915050565b600060808201905061558a600083018761389f565b615597602083018661389f565b6155a460408301856139cc565b81810360608301526155b6818461553c565b905095945050505050565b6000815190506155d0816136c9565b92915050565b6000602082840312156155ec576155eb613693565b5b60006155fa848285016155c1565b91505092915050565b7f4552433732315061757361626c653a20746f6b656e207472616e73666572207760008201527f68696c6520706175736564000000000000000000000000000000000000000000602082015250565b600061565f602b83613763565b915061566a82615603565b604082019050919050565b6000602082019050818103600083015261568e81615652565b9050919050565b7f4552433732313a206d696e7420746f20746865207a65726f2061646472657373600082015250565b60006156cb602083613763565b91506156d682615695565b602082019050919050565b600060208201905081810360008301526156fa816156be565b9050919050565b7f4552433732313a20746f6b656e20616c7265616479206d696e74656400000000600082015250565b6000615737601c83613763565b915061574282615701565b602082019050919050565b600060208201905081810360008301526157668161572a565b9050919050565b7f4e487b7100000000000000000000000000000000000000000000000000000000600052603160045260246000fdfea2646970667358221220dba6a113f2076515d019ca3081e6fef251ce851476fcd5c336df7d6d232fc78964736f6c63430008100033",
  "immutableReferences": {},
  "source": "// SPDX-License-Identifier: UNLICENSED\r\npragma solidity ^0.8.0;\r\n\r\nimport \"./ERC2981.sol\";\r\nimport \"@openzeppelin/contracts/token/ERC20/ERC20.sol\";\r\nimport \"@openzeppelin/contracts/token/ERC721/ERC721.sol\";\r\nimport \"@openzeppelin/contracts/token/ERC721/extensions/ERC721Burnable.sol\";\r\nimport \"@openzeppelin/contracts/token/ERC721/extensions/ERC721Enumerable.sol\";\r\nimport \"@openzeppelin/contracts/token/ERC721/extensions/ERC721Pausable.sol\";\r\nimport \"@openzeppelin/contracts/access/Ownable.sol\";\r\nimport \"@openzeppelin/contracts/utils/Counters.sol\";\r\nimport \"@openzeppelin/contracts/utils/math/SafeCast.sol\";\r\n\r\ncontract ZoidsNFT is\r\n    ERC721Enumerable,\r\n    ERC721Burnable,\r\n    ERC721Pausable,\r\n    ERC2981,\r\n    Ownable\r\n{\r\n    using Counters for Counters.Counter;\r\n    using SafeCast for uint256;\r\n\r\n    string public VER;\r\n    bytes4 public constant _INTERFACE_ID_ERC2981 = 0x2a55205a;\r\n\r\n    Counters.Counter public lastTokenId;\r\n    string public baseURI;\r\n    address public erc20ContractAddress;\r\n\r\n    struct CardInfo {\r\n        uint256 cardIndex;\r\n    }\r\n    mapping(uint256 => CardInfo) private cardInfos;\r\n\r\n    event evtNFTCreated(address _owner, uint256 _tokenId);\r\n\r\n    constructor(\r\n        string memory _ver,\r\n        string memory _name,\r\n        string memory _symbol,\r\n        string memory _uri,\r\n        address _erc20\r\n    ) public ERC721(_name, _symbol) {\r\n        VER = _ver;\r\n        setBaseURI(_uri);\r\n        setERC20ContractAddress(_erc20);\r\n        supportsInterface(_INTERFACE_ID_ERC2981);\r\n    }\r\n\r\n    function setERC20ContractAddress(address _contractAddress)\r\n        public\r\n        onlyOwner\r\n    {\r\n        erc20ContractAddress = _contractAddress;\r\n    }\r\n\r\n    function contractURI() public view returns (string memory) {\r\n        return string(abi.encodePacked(_baseURI(), \"contract-meta\"));\r\n    }\r\n\r\n    function _baseURI() internal view override returns (string memory) {\r\n        return baseURI;\r\n    }\r\n\r\n    function setBaseURI(string memory _uri) public onlyOwner {\r\n        baseURI = _uri;\r\n    }\r\n\r\n    function getLastTokenId() public view returns (uint256) {\r\n        return lastTokenId.current();\r\n    }\r\n\r\n    function getCardIndex(uint256 _tokenId) public view returns (uint256) {\r\n        return cardInfos[_tokenId].cardIndex;\r\n    }\r\n\r\n    function tokensOfOwner(\r\n        address _owner,\r\n        uint256 _min,\r\n        uint256 _max\r\n    ) public view returns (uint256[] memory) {\r\n        require(\r\n            _min <= _max,\r\n            \"tokensOfOwner: min value is bigger than max value\"\r\n        );\r\n\r\n        uint256 arrayLength = _max - _min + 1;\r\n        uint256 count = 0;\r\n        uint256[] memory tokenIds = new uint256[](arrayLength);\r\n        for (uint256 index = _min; index <= _max; index++) {\r\n            tokenIds[count] = tokenOfOwnerByIndex(_owner, index);\r\n            count++;\r\n        }\r\n        return tokenIds;\r\n    }\r\n\r\n    function _createCard(\r\n        address _toAddress,\r\n        uint256 _cardIndex,\r\n        uint96 _royalty\r\n    ) private {\r\n        lastTokenId.increment();\r\n\r\n        uint256 _tokenId = lastTokenId.current();\r\n        _safeMint(_toAddress, _tokenId);\r\n\r\n        setRoyaltyInfo(_tokenId, owner(), _royalty);\r\n\r\n        cardInfos[_tokenId] = CardInfo(_cardIndex);\r\n\r\n        emit evtNFTCreated(_toAddress, _tokenId);\r\n    }\r\n\r\n    function createCard(\r\n        address _toAddress,\r\n        uint256 _cardIndex,\r\n        uint96 _royalty\r\n    ) public onlyOwner {\r\n        _createCard(_toAddress, _cardIndex, _royalty);\r\n    }\r\n\r\n    function createCardWithBurn(\r\n        address _toAddress,\r\n        uint256 _cardIndex,\r\n        uint256[] memory _burnTokenId,\r\n        uint96 _royalty\r\n    ) public onlyOwner {\r\n        for (uint256 i = 0; i < _burnTokenId.length; i++) {\r\n            _burn(_burnTokenId[i]);\r\n        }\r\n\r\n        _createCard(_toAddress, _cardIndex, _royalty);\r\n    }\r\n\r\n    function unpack(\r\n        address _toAddress,\r\n        uint256[] memory _cardIndex,\r\n        uint256 _amount,\r\n        uint96 _royalty\r\n    ) public {\r\n        require(_cardIndex.length == _amount, \"unpack: values length mismatch\");\r\n\r\n        for (uint256 i = 0; i < _amount; i++) {\r\n            _createCard(_toAddress, _cardIndex[i], _royalty);\r\n        }\r\n    }\r\n\r\n    function market(\r\n        address _buyer,\r\n        uint256 _tokenId,\r\n        uint256 _coinAmount\r\n    ) public {\r\n        address royaltyReciever;\r\n        uint256 royaltyAmount;\r\n        (royaltyReciever, royaltyAmount) = royaltyInfo(_tokenId, _coinAmount);\r\n        uint256 tokenOwnerAmount = _coinAmount - royaltyAmount;\r\n\r\n        address tokenOwner = ownerOf(_tokenId);\r\n        ERC20(erc20ContractAddress).transferFrom(\r\n            _buyer,\r\n            tokenOwner,\r\n            tokenOwnerAmount\r\n        );\r\n\r\n        ERC20(erc20ContractAddress).transferFrom(\r\n            _buyer,\r\n            royaltyReciever,\r\n            royaltyAmount\r\n        );\r\n\r\n        safeTransferFrom(tokenOwner, _buyer, _tokenId);\r\n    }\r\n\r\n    function marketMulti(\r\n        address _buyer,\r\n        uint256[] memory _tokenId,\r\n        uint256[] memory _coinAmount\r\n    ) public {\r\n        require(\r\n            _tokenId.length == _coinAmount.length,\r\n            \"marketMulti: values length mismatch\"\r\n        );\r\n\r\n        for (uint256 i = 0; i < _tokenId.length; i++) {\r\n            market(_buyer, _tokenId[i], _coinAmount[i]);\r\n        }\r\n    }\r\n\r\n    function pause() public virtual onlyOwner {\r\n        _pause();\r\n    }\r\n\r\n    function unpause() public virtual onlyOwner {\r\n        _unpause();\r\n    }\r\n\r\n    function _beforeTokenTransfer(\r\n        address from,\r\n        address to,\r\n        uint256 tokenId\r\n    )\r\n        internal\r\n        virtual\r\n        override(ERC721, ERC721Enumerable, ERC721Pausable)\r\n        whenNotPaused\r\n    {\r\n        super._beforeTokenTransfer(from, to, tokenId);\r\n    }\r\n\r\n    function setRoyaltyInfo(\r\n        uint256 _tokenId,\r\n        address _receiver,\r\n        uint96 _royalty\r\n    ) public onlyOwner {\r\n        _setTokenRoyalty(_tokenId, _receiver, _royalty);\r\n    }\r\n\r\n    function checkRoyalties(address _contractAddress)\r\n        public\r\n        view\r\n        returns (bool)\r\n    {\r\n        bool _success = IERC165(_contractAddress).supportsInterface(\r\n            _INTERFACE_ID_ERC2981\r\n        );\r\n        return _success;\r\n    }\r\n\r\n    function supportsInterface(bytes4 _interfaceId)\r\n        public\r\n        view\r\n        virtual\r\n        override(IERC165, ERC721, ERC721Enumerable)\r\n        returns (bool)\r\n    {\r\n        return (_interfaceId == type(IERC2981).interfaceId ||\r\n            super.supportsInterface(_interfaceId));\r\n    }\r\n}\r\n",
  "sourcePath": "C:\\Work\\SmartContract\\trunk\\ZoidNFT_BSC_ERC721\\contracts\\ZoidsNFT.sol",
  "compiler": {
    "name": "solc",
    "version": "0.8.16+commit.07a7930e.Emscripten.clang"
  },
  "schemaVersion": "3.4.3",
  "updatedAt": "2022-08-12T07:18:10.435Z",
  "networkType": "ethereum",
  "devdoc": {
    "kind": "dev",
    "methods": {
      "approve(address,uint256)": {
        "details": "See {IERC721-approve}."
      },
      "balanceOf(address)": {
        "details": "See {IERC721-balanceOf}."
      },
      "burn(uint256)": {
        "details": "Burns `tokenId`. See {ERC721-_burn}. Requirements: - The caller must own `tokenId` or be an approved operator."
      },
      "getApproved(uint256)": {
        "details": "See {IERC721-getApproved}."
      },
      "isApprovedForAll(address,address)": {
        "details": "See {IERC721-isApprovedForAll}."
      },
      "name()": {
        "details": "See {IERC721Metadata-name}."
      },
      "owner()": {
        "details": "Returns the address of the current owner."
      },
      "ownerOf(uint256)": {
        "details": "See {IERC721-ownerOf}."
      },
      "paused()": {
        "details": "Returns true if the contract is paused, and false otherwise."
      },
      "renounceOwnership()": {
        "details": "Leaves the contract without owner. It will not be possible to call `onlyOwner` functions anymore. Can only be called by the current owner. NOTE: Renouncing ownership will leave the contract without an owner, thereby removing any functionality that is only available to the owner."
      },
      "royaltyInfo(uint256,uint256)": {
        "details": "Returns how much royalty is owed and to whom, based on a sale price that may be denominated in any unit of exchange. The royalty amount is denominated and should be paid in that same unit of exchange."
      },
      "safeTransferFrom(address,address,uint256)": {
        "details": "See {IERC721-safeTransferFrom}."
      },
      "safeTransferFrom(address,address,uint256,bytes)": {
        "details": "See {IERC721-safeTransferFrom}."
      },
      "setApprovalForAll(address,bool)": {
        "details": "See {IERC721-setApprovalForAll}."
      },
      "symbol()": {
        "details": "See {IERC721Metadata-symbol}."
      },
      "tokenByIndex(uint256)": {
        "details": "See {IERC721Enumerable-tokenByIndex}."
      },
      "tokenOfOwnerByIndex(address,uint256)": {
        "details": "See {IERC721Enumerable-tokenOfOwnerByIndex}."
      },
      "tokenURI(uint256)": {
        "details": "See {IERC721Metadata-tokenURI}."
      },
      "totalSupply()": {
        "details": "See {IERC721Enumerable-totalSupply}."
      },
      "transferFrom(address,address,uint256)": {
        "details": "See {IERC721-transferFrom}."
      },
      "transferOwnership(address)": {
        "details": "Transfers ownership of the contract to a new account (`newOwner`). Can only be called by the current owner."
      }
    },
    "version": 1
  },
  "userdoc": {
    "kind": "user",
    "methods": {},
    "version": 1
  }
}